{
    "contractName": "Doctor",
    "abi": [
        {
            "inputs": [
                {
                    "internalType": "address",
                    "name": "patient",
                    "type": "address"
                }
            ],
            "name": "add_Patient",
            "outputs": [],
            "stateMutability": "nonpayable",
            "type": "function"
        }
    ],
    "bytecode": "608060405234801561001057600080fd5b5060c88061001f6000396000f3fe6080604052348015600f57600080fd5b506004361060285760003560e01c80636ae05dd614602d575b600080fd5b606260383660046064565b6001600160a01b0316600081815260208190526040902080546001600160a01b0319169091179055565b005b600060208284031215607557600080fd5b81356001600160a01b0381168114608b57600080fd5b939250505056fea2646970667358221220f27e06a8c69980bd258be269b9df427fe7081d846ca135e4a4b0843ceb4c3e3264736f6c634300080f0033",
    "sourcePath": "c:/Users/bnick/Desktop/EHR/truffle/contracts/Doctor.sol",
    "compiler": {
        "name": "solc",
        "version": "0.8.15+commit.e14f2714"
    },
    "functionHashes": {
        "add_Patient(address)": "6ae05dd6"
    },
    "gasEstimates": {
        "creation": {
            "codeDepositCost": "40000",
            "executionCost": "93",
            "totalCost": "40093"
        },
        "external": {
            "add_Patient(address)": "24559"
        }
    }
}