{
  "contractName": "Patient",
  "abi": [
    {
      "inputs": [
        {
          "internalType": "string",
          "name": "name",
          "type": "string"
        },
        {
          "internalType": "uint256",
          "name": "age",
          "type": "uint256"
        },
        {
          "internalType": "string",
          "name": "add",
          "type": "string"
        },
        {
          "internalType": "uint256",
          "name": "mobile",
          "type": "uint256"
        },
        {
          "internalType": "string",
          "name": "email",
          "type": "string"
        }
      ],
      "name": "set_Personal_Details",
      "outputs": [],
      "stateMutability": "nonpayable",
      "type": "function"
    },
    {
      "inputs": [],
      "name": "get_Personal_Details",
      "outputs": [
        {
          "internalType": "string",
          "name": "",
          "type": "string"
        },
        {
          "internalType": "uint256",
          "name": "",
          "type": "uint256"
        },
        {
          "internalType": "string",
          "name": "",
          "type": "string"
        },
        {
          "internalType": "uint256",
          "name": "",
          "type": "uint256"
        },
        {
          "internalType": "string",
          "name": "",
          "type": "string"
        }
      ],
      "stateMutability": "view",
      "type": "function",
      "constant": true
    },
    {
      "inputs": [
        {
          "internalType": "string",
          "name": "disease",
          "type": "string"
        },
        {
          "internalType": "string",
          "name": "treatment",
          "type": "string"
        },
        {
          "internalType": "string",
          "name": "medicine",
          "type": "string"
        },
        {
          "internalType": "uint256",
          "name": "date",
          "type": "uint256"
        }
      ],
      "name": "set_History",
      "outputs": [],
      "stateMutability": "nonpayable",
      "type": "function"
    },
    {
      "inputs": [
        {
          "internalType": "string",
          "name": "disease",
          "type": "string"
        }
      ],
      "name": "get_History",
      "outputs": [
        {
          "internalType": "string",
          "name": "",
          "type": "string"
        },
        {
          "internalType": "string",
          "name": "",
          "type": "string"
        },
        {
          "internalType": "uint256",
          "name": "",
          "type": "uint256"
        }
      ],
      "stateMutability": "view",
      "type": "function",
      "constant": true
    },
    {
      "inputs": [],
      "name": "get_Full_History",
      "outputs": [
        {
          "components": [
            {
              "internalType": "string",
              "name": "disease",
              "type": "string"
            },
            {
              "internalType": "string",
              "name": "treatment",
              "type": "string"
            },
            {
              "internalType": "string",
              "name": "medicine",
              "type": "string"
            },
            {
              "internalType": "uint256",
              "name": "date",
              "type": "uint256"
            }
          ],
          "internalType": "struct Patient.History_T[]",
          "name": "",
          "type": "tuple[]"
        }
      ],
      "stateMutability": "view",
      "type": "function",
      "constant": true
    },
    {
      "inputs": [
        {
          "internalType": "string",
          "name": "disease",
          "type": "string"
        }
      ],
      "name": "delete_History",
      "outputs": [],
      "stateMutability": "nonpayable",
      "type": "function"
    }
  ],
  "bytecode": "0x608060405234801561001057600080fd5b50611d3e806100206000396000f3fe608060405234801561001057600080fd5b50600436106100625760003560e01c806311e3e9721461006757806312455eea146100995780632521f281146100b75780632e1a597f146100d3578063587d82b6146100ef578063c31936a51461010b575b600080fd5b610081600480360381019061007c9190611550565b61012d565b6040516100909392919061163a565b60405180910390f35b6100a16104c7565b6040516100ae919061180b565b60405180910390f35b6100d160048036038101906100cc9190611550565b610723565b005b6100ed60048036038101906100e89190611859565b610a88565b005b61010960048036038101906101049190611914565b610deb565b005b610113610f80565b6040516101249594939291906119e3565b60405180910390f35b606080600080600090505b600160003373ffffffffffffffffffffffffffffffffffffffff1673ffffffffffffffffffffffffffffffffffffffff1681526020019081526020016000208054905081101561049457846040516020016101939190611a87565b60405160208183030381529060405280519060200120600160003373ffffffffffffffffffffffffffffffffffffffff1673ffffffffffffffffffffffffffffffffffffffff16815260200190815260200160002082815481106101fa576101f9611a9e565b5b906000526020600020906004020160000160405160200161021b9190611bc1565b604051602081830303815290604052805190602001200361048157600160003373ffffffffffffffffffffffffffffffffffffffff1673ffffffffffffffffffffffffffffffffffffffff168152602001908152602001600020818154811061028757610286611a9e565b5b9060005260206000209060040201600101600160003373ffffffffffffffffffffffffffffffffffffffff1673ffffffffffffffffffffffffffffffffffffffff16815260200190815260200160002082815481106102e9576102e8611a9e565b5b9060005260206000209060040201600201600160003373ffffffffffffffffffffffffffffffffffffffff1673ffffffffffffffffffffffffffffffffffffffff168152602001908152602001600020838154811061034b5761034a611a9e565b5b90600052602060002090600402016003015482805461036990611afc565b80601f016020809104026020016040519081016040528092919081815260200182805461039590611afc565b80156103e25780601f106103b7576101008083540402835291602001916103e2565b820191906000526020600020905b8154815290600101906020018083116103c557829003601f168201915b505050505092508180546103f590611afc565b80601f016020809104026020016040519081016040528092919081815260200182805461042190611afc565b801561046e5780601f106104435761010080835404028352916020019161046e565b820191906000526020600020905b81548152906001019060200180831161045157829003601f168201915b50505050509150935093509350506104c0565b808061048c90611c07565b915050610138565b506000604051806020016040528060008152509060405180602001604052806000815250909250925092505b9193909250565b6060600160003373ffffffffffffffffffffffffffffffffffffffff1673ffffffffffffffffffffffffffffffffffffffff168152602001908152602001600020805480602002602001604051908101604052809291908181526020016000905b8282101561071a578382906000526020600020906004020160405180608001604052908160008201805461055b90611afc565b80601f016020809104026020016040519081016040528092919081815260200182805461058790611afc565b80156105d45780601f106105a9576101008083540402835291602001916105d4565b820191906000526020600020905b8154815290600101906020018083116105b757829003601f168201915b505050505081526020016001820180546105ed90611afc565b80601f016020809104026020016040519081016040528092919081815260200182805461061990611afc565b80156106665780601f1061063b57610100808354040283529160200191610666565b820191906000526020600020905b81548152906001019060200180831161064957829003601f168201915b5050505050815260200160028201805461067f90611afc565b80601f01602080910402602001604051908101604052809291908181526020018280546106ab90611afc565b80156106f85780601f106106cd576101008083540402835291602001916106f8565b820191906000526020600020905b8154815290600101906020018083116106db57829003601f168201915b5050505050815260200160038201548152505081526020019060010190610528565b50505050905090565b60005b600160003373ffffffffffffffffffffffffffffffffffffffff1673ffffffffffffffffffffffffffffffffffffffff16815260200190815260200160002080549050811015610a8357816040516020016107819190611a87565b60405160208183030381529060405280519060200120600160003373ffffffffffffffffffffffffffffffffffffffff1673ffffffffffffffffffffffffffffffffffffffff16815260200190815260200160002082815481106107e8576107e7611a9e565b5b90600052602060002090600402016000016040516020016108099190611bc1565b6040516020818303038152906040528051906020012003610a705760008190505b60018060003373ffffffffffffffffffffffffffffffffffffffff1673ffffffffffffffffffffffffffffffffffffffff168152602001908152602001600020805490506108789190611c4f565b8110156109c957600160003373ffffffffffffffffffffffffffffffffffffffff1673ffffffffffffffffffffffffffffffffffffffff1681526020019081526020016000206001826108cb9190611c83565b815481106108dc576108db611a9e565b5b9060005260206000209060040201600160003373ffffffffffffffffffffffffffffffffffffffff1673ffffffffffffffffffffffffffffffffffffffff168152602001908152602001600020828154811061093b5761093a611a9e565b5b9060005260206000209060040201600082018160000190805461095d90611afc565b610968929190611286565b50600182018160010190805461097d90611afc565b610988929190611286565b50600282018160020190805461099d90611afc565b6109a8929190611286565b506003820154816003015590505080806109c190611c07565b91505061082a565b50600160003373ffffffffffffffffffffffffffffffffffffffff1673ffffffffffffffffffffffffffffffffffffffff168152602001908152602001600020805480610a1957610a18611cd9565b5b600190038181906000526020600020906004020160008082016000610a3e9190611313565b600182016000610a4e9190611313565b600282016000610a5e9190611313565b60038201600090555050905550610a85565b8080610a7b90611c07565b915050610726565b505b50565b60005b600160003373ffffffffffffffffffffffffffffffffffffffff1673ffffffffffffffffffffffffffffffffffffffff16815260200190815260200160002080549050811015610cf75784604051602001610ae69190611a87565b60405160208183030381529060405280519060200120600160003373ffffffffffffffffffffffffffffffffffffffff1673ffffffffffffffffffffffffffffffffffffffff1681526020019081526020016000208281548110610b4d57610b4c611a9e565b5b9060005260206000209060040201600001604051602001610b6e9190611bc1565b6040516020818303038152906040528051906020012003610ce45783600160003373ffffffffffffffffffffffffffffffffffffffff1673ffffffffffffffffffffffffffffffffffffffff1681526020019081526020016000208281548110610bdb57610bda611a9e565b5b90600052602060002090600402016001019080519060200190610bff929190611353565b5082600160003373ffffffffffffffffffffffffffffffffffffffff1673ffffffffffffffffffffffffffffffffffffffff1681526020019081526020016000208281548110610c5257610c51611a9e565b5b90600052602060002090600402016002019080519060200190610c76929190611353565b5081600160003373ffffffffffffffffffffffffffffffffffffffff1673ffffffffffffffffffffffffffffffffffffffff1681526020019081526020016000208281548110610cc957610cc8611a9e565b5b90600052602060002090600402016003018190555050610de5565b8080610cef90611c07565b915050610a8b565b50600160003373ffffffffffffffffffffffffffffffffffffffff1673ffffffffffffffffffffffffffffffffffffffff16815260200190815260200160002060405180608001604052808681526020018581526020018481526020018381525090806001815401808255809150506001900390600052602060002090600402016000909190919091506000820151816000019080519060200190610d9d929190611353565b506020820151816001019080519060200190610dba929190611353565b506040820151816002019080519060200190610dd7929190611353565b506060820151816003015550505b50505050565b846000803373ffffffffffffffffffffffffffffffffffffffff1673ffffffffffffffffffffffffffffffffffffffff1681526020019081526020016000206000019080519060200190610e40929190611353565b50836000803373ffffffffffffffffffffffffffffffffffffffff1673ffffffffffffffffffffffffffffffffffffffff16815260200190815260200160002060010181905550826000803373ffffffffffffffffffffffffffffffffffffffff1673ffffffffffffffffffffffffffffffffffffffff1681526020019081526020016000206002019080519060200190610edc929190611353565b50816000803373ffffffffffffffffffffffffffffffffffffffff1673ffffffffffffffffffffffffffffffffffffffff16815260200190815260200160002060030181905550806000803373ffffffffffffffffffffffffffffffffffffffff1673ffffffffffffffffffffffffffffffffffffffff1681526020019081526020016000206004019080519060200190610f78929190611353565b505050505050565b606060006060600060606000803373ffffffffffffffffffffffffffffffffffffffff1673ffffffffffffffffffffffffffffffffffffffff1681526020019081526020016000206000016000803373ffffffffffffffffffffffffffffffffffffffff1673ffffffffffffffffffffffffffffffffffffffff168152602001908152602001600020600101546000803373ffffffffffffffffffffffffffffffffffffffff1673ffffffffffffffffffffffffffffffffffffffff1681526020019081526020016000206002016000803373ffffffffffffffffffffffffffffffffffffffff1673ffffffffffffffffffffffffffffffffffffffff168152602001908152602001600020600301546000803373ffffffffffffffffffffffffffffffffffffffff1673ffffffffffffffffffffffffffffffffffffffff1681526020019081526020016000206004018480546110dd90611afc565b80601f016020809104026020016040519081016040528092919081815260200182805461110990611afc565b80156111565780601f1061112b57610100808354040283529160200191611156565b820191906000526020600020905b81548152906001019060200180831161113957829003601f168201915b5050505050945082805461116990611afc565b80601f016020809104026020016040519081016040528092919081815260200182805461119590611afc565b80156111e25780601f106111b7576101008083540402835291602001916111e2565b820191906000526020600020905b8154815290600101906020018083116111c557829003601f168201915b505050505092508080546111f590611afc565b80601f016020809104026020016040519081016040528092919081815260200182805461122190611afc565b801561126e5780601f106112435761010080835404028352916020019161126e565b820191906000526020600020905b81548152906001019060200180831161125157829003601f168201915b50505050509050945094509450945094509091929394565b82805461129290611afc565b90600052602060002090601f0160209004810192826112b45760008555611302565b82601f106112c55780548555611302565b8280016001018555821561130257600052602060002091601f016020900482015b828111156113015782548255916001019190600101906112e6565b5b50905061130f91906113d9565b5090565b50805461131f90611afc565b6000825580601f106113315750611350565b601f01602090049060005260206000209081019061134f91906113d9565b5b50565b82805461135f90611afc565b90600052602060002090601f01602090048101928261138157600085556113c8565b82601f1061139a57805160ff19168380011785556113c8565b828001600101855582156113c8579182015b828111156113c75782518255916020019190600101906113ac565b5b5090506113d591906113d9565b5090565b5b808211156113f25760008160009055506001016113da565b5090565b6000604051905090565b600080fd5b600080fd5b600080fd5b600080fd5b6000601f19601f8301169050919050565b7f4e487b7100000000000000000000000000000000000000000000000000000000600052604160045260246000fd5b61145d82611414565b810181811067ffffffffffffffff8211171561147c5761147b611425565b5b80604052505050565b600061148f6113f6565b905061149b8282611454565b919050565b600067ffffffffffffffff8211156114bb576114ba611425565b5b6114c482611414565b9050602081019050919050565b82818337600083830152505050565b60006114f36114ee846114a0565b611485565b90508281526020810184848401111561150f5761150e61140f565b5b61151a8482856114d1565b509392505050565b600082601f8301126115375761153661140a565b5b81356115478482602086016114e0565b91505092915050565b60006020828403121561156657611565611400565b5b600082013567ffffffffffffffff81111561158457611583611405565b5b61159084828501611522565b91505092915050565b600081519050919050565b600082825260208201905092915050565b60005b838110156115d35780820151818401526020810190506115b8565b838111156115e2576000848401525b50505050565b60006115f382611599565b6115fd81856115a4565b935061160d8185602086016115b5565b61161681611414565b840191505092915050565b6000819050919050565b61163481611621565b82525050565b6000606082019050818103600083015261165481866115e8565b9050818103602083015261166881856115e8565b9050611677604083018461162b565b949350505050565b600081519050919050565b600082825260208201905092915050565b6000819050602082019050919050565b600082825260208201905092915050565b60006116c782611599565b6116d181856116ab565b93506116e18185602086016115b5565b6116ea81611414565b840191505092915050565b6116fe81611621565b82525050565b6000608083016000830151848203600086015261172182826116bc565b9150506020830151848203602086015261173b82826116bc565b9150506040830151848203604086015261175582826116bc565b915050606083015161176a60608601826116f5565b508091505092915050565b60006117818383611704565b905092915050565b6000602082019050919050565b60006117a18261167f565b6117ab818561168a565b9350836020820285016117bd8561169b565b8060005b858110156117f957848403895281516117da8582611775565b94506117e583611789565b925060208a019950506001810190506117c1565b50829750879550505050505092915050565b600060208201905081810360008301526118258184611796565b905092915050565b61183681611621565b811461184157600080fd5b50565b6000813590506118538161182d565b92915050565b6000806000806080858703121561187357611872611400565b5b600085013567ffffffffffffffff81111561189157611890611405565b5b61189d87828801611522565b945050602085013567ffffffffffffffff8111156118be576118bd611405565b5b6118ca87828801611522565b935050604085013567ffffffffffffffff8111156118eb576118ea611405565b5b6118f787828801611522565b925050606061190887828801611844565b91505092959194509250565b600080600080600060a086880312156119305761192f611400565b5b600086013567ffffffffffffffff81111561194e5761194d611405565b5b61195a88828901611522565b955050602061196b88828901611844565b945050604086013567ffffffffffffffff81111561198c5761198b611405565b5b61199888828901611522565b93505060606119a988828901611844565b925050608086013567ffffffffffffffff8111156119ca576119c9611405565b5b6119d688828901611522565b9150509295509295909350565b600060a08201905081810360008301526119fd81886115e8565b9050611a0c602083018761162b565b8181036040830152611a1e81866115e8565b9050611a2d606083018561162b565b8181036080830152611a3f81846115e8565b90509695505050505050565b600081905092915050565b6000611a6182611599565b611a6b8185611a4b565b9350611a7b8185602086016115b5565b80840191505092915050565b6000611a938284611a56565b915081905092915050565b7f4e487b7100000000000000000000000000000000000000000000000000000000600052603260045260246000fd5b7f4e487b7100000000000000000000000000000000000000000000000000000000600052602260045260246000fd5b60006002820490506001821680611b1457607f821691505b602082108103611b2757611b26611acd565b5b50919050565b60008190508160005260206000209050919050565b60008154611b4f81611afc565b611b598186611a4b565b94506001821660008114611b745760018114611b8557611bb8565b60ff19831686528186019350611bb8565b611b8e85611b2d565b60005b83811015611bb057815481890152600182019150602081019050611b91565b838801955050505b50505092915050565b6000611bcd8284611b42565b915081905092915050565b7f4e487b7100000000000000000000000000000000000000000000000000000000600052601160045260246000fd5b6000611c1282611621565b91507fffffffffffffffffffffffffffffffffffffffffffffffffffffffffffffffff8203611c4457611c43611bd8565b5b600182019050919050565b6000611c5a82611621565b9150611c6583611621565b925082821015611c7857611c77611bd8565b5b828203905092915050565b6000611c8e82611621565b9150611c9983611621565b9250827fffffffffffffffffffffffffffffffffffffffffffffffffffffffffffffffff03821115611cce57611ccd611bd8565b5b828201905092915050565b7f4e487b7100000000000000000000000000000000000000000000000000000000600052603160045260246000fdfea264697066735822122022a8031558a6937936e3eb77206e68f958e36c016a102813c82695c64606151b64736f6c634300080e0033",
  "immutableReferences": {},
  "source": "// SPDX-License-Identifier: MIT\r\npragma solidity >=0.4.22 <0.9.0;\r\ncontract Patient{\r\n\r\n  struct PD_T{\r\n    string name;\r\n    uint age;\r\n    string add;\r\n    uint mobile;\r\n    string email;\r\n  }\r\n  struct History_T{\r\n    string disease;\r\n    string treatment;\r\n    string medicine;\r\n    uint date;\r\n  }\r\n  \r\n  mapping(address => PD_T) Personal_Details;\r\n  mapping(address => History_T[]) History;\r\n  \r\n  function set_Personal_Details(string memory name, uint age, string memory add, uint mobile, string memory email) public{\r\n    Personal_Details[msg.sender].name = name;\r\n    Personal_Details[msg.sender].age = age;\r\n    Personal_Details[msg.sender].add = add;\r\n    Personal_Details[msg.sender].mobile = mobile;\r\n    Personal_Details[msg.sender].email = email;\r\n  }\r\n  \r\n  function get_Personal_Details() public view returns (string memory, uint, string memory, uint, string memory){\r\n    return (Personal_Details[msg.sender].name, \r\n            Personal_Details[msg.sender].age, \r\n            Personal_Details[msg.sender].add, \r\n            Personal_Details[msg.sender].mobile, \r\n            Personal_Details[msg.sender].email);\r\n  }\r\n\r\n  function set_History(string memory disease, string memory treatment, string memory medicine, uint date) public{\r\n    //Checks to see if disease exists in the history. If it does not, it adds the new treatment to the end of the array.\r\n    for(uint i = 0; i < History[msg.sender].length; i++){\r\n      if(keccak256(abi.encodePacked(History[msg.sender][i].disease)) == keccak256(abi.encodePacked(disease))){\r\n        History[msg.sender][i].treatment = treatment;\r\n        History[msg.sender][i].medicine = medicine;\r\n        History[msg.sender][i].date = date;\r\n        return;\r\n      }\r\n    }\r\n    History[msg.sender].push(History_T(disease, treatment, medicine, date));\r\n  }\r\n\r\n  function get_History(string memory disease) public view returns (string memory , string memory, uint){\r\n    for(uint i = 0; i < History[msg.sender].length; i++){\r\n      if(keccak256(abi.encodePacked(History[msg.sender][i].disease)) == keccak256(abi.encodePacked(disease))){\r\n        return (History[msg.sender][i].treatment, \r\n                History[msg.sender][i].medicine, \r\n                History[msg.sender][i].date);\r\n      }\r\n    }\r\n    return (\"\", \"\", 0);\r\n  }\r\n\r\n  function get_Full_History() public view returns (History_T[] memory){\r\n    return History[msg.sender];\r\n  }\r\n\r\n  function delete_History(string memory disease) public{\r\n    //Checks to see if disease exists in the history. If it does, it deletes the disease from the history.\r\n    for(uint i = 0; i < History[msg.sender].length; i++){\r\n      if(keccak256(abi.encodePacked(History[msg.sender][i].disease)) == keccak256(abi.encodePacked(disease))){\r\n        //Deletes the disease from the history. The element that is being deleted is replaced with the next element and this will continue \r\n        //until the end of the array is reached. Then the last element will be deleted since it is a duplicate of the element ahead of it.\r\n        for(uint j = i; j < History[msg.sender].length - 1; j++){\r\n          History[msg.sender][j] = History[msg.sender][j+1];\r\n        }\r\n        History[msg.sender].pop();\r\n        return;\r\n      }\r\n    }\r\n  }\r\n}",
  "sourcePath": "C:\\Users\\bnick\\Desktop\\EHR\\truffle\\contracts\\Patient.sol",
  "compiler": {
    "name": "solc",
    "version": "0.8.14+commit.80d49f37.Emscripten.clang"
  },
  "schemaVersion": "3.4.7",
  "updatedAt": "2022-07-12T18:23:22.968Z",
  "networkType": "ethereum",
  "devdoc": {
    "kind": "dev",
    "methods": {},
    "version": 1
  },
  "userdoc": {
    "kind": "user",
    "methods": {},
    "version": 1
  }
}